S00700006D61696E53
S11320008E304FBD23A6CE3200860FBD23BD863051
S1132010CE3207A703BD23C818CE3100BD23342513
S1132020037E214618A60081432612CE3200860F75
S1132030BD23BD8630CE3207A7037E213A18A60001
S11320408152262FB6320326037E2146CE32011852
S1132050CE320CBD21AE24037E2129FE320CFF3288
S113206001CE320C18CE3207BD21498601B7320E9B
S11320707E213A18A600810A243ECE320B3CCE3291
S1132080073CB63203261018A6002605FE320127A7
S113209019CE32007E20A418A6002605FE3205279C
S11320A009CE3204BD22AA7E20B3CE32078630A7E1
S11320B0036F0038387E213A18A600812D2633FE9E
S11320C03201271BB6320E27037E20F2B6320327D5
S11320D02B7C3204862DB732077C320B7E213AB634
S11320E03200260E7C32007C320B862DB732077EFE
S11320F0213A18A600274FB6320E27137F3204CE9A
S113210032056F006F017F320B7F320E7E2114B6D1
S113211032032626CE32073C18A600CE320B18CE48
S11321203203BD2316387E213ACE32073C18CE3115
S113213000CE3200C60FBD23E538CE3207BD219450
S10C2140BD23C8BD23967E2018BE
S1133100000102030405060708092B2D432F2A5248
S113214936373C183CEC002733482412C62D18E7CF
S113215900EC004353C30001CE00033C2006EC000D
S1132169CE00043CCE000A028C0000CB3018E703F1
S113217918098F38093C26EC387E218E18ED00CCDD
S10E2189003018ED02183838323339EA
S113219436373CC604A600812D27074D8130260618
S10D21A46F00085A26EF3833323971
S11321AE36373C183C862AA102274C4CA102273014
S11321BE4C4CA1022713EC00EE0426037E2216BD1E
S11321CE227418ED000C7E2217EC00A3041A83FC73
S11321DE182B351A8327102A2F18ED000C7E221780
S11321EEEC00E3041A8327102A1E1A83FC182B18FA
S11321FE18ED000C7E22173CEC00EE04BD221D38B7
S113220E250718ED007E22170D1838383233391889
S113221E3C7F320F183018EE044D2C0B7C320F43DA
S113222E53C3000118ED008F4D2C087C320F43531D
S113223EC300018FCC000018E3001A832710241E5C
S113224E0926F47D320F271A74320F74320F2512B9
S113225E4353C300011A83FC182F037E22700D7E94
S113226E22710C183839183C18CE00004D2C071862
S113227E084353C300018F4D2C0718084353C30062
S113228E018F028F188F5D270E5454250A188F4321
S10F229E53C300017E22A7188F183839A2
S11322AA36373C183C7F321230EE0AA600810425E8
S11322BA037E231030EE02A6002609EC0118CE0094
S11322CA0A7E22DC7C321218CE000AEC014353C384
S11322DA0001FD32104F5FF33210180926F9301A43
S11322EAEE008F18E6003A8F7D321227054353C356
S11322FA000130EE02ED0130EE0A6C00301AEE08ED
S10F230AEE0208BD21491838383332397E
S113231636373C183C18A7006F0030EE08A700C6F5
S111232603086F00085A26FA18383833323983
S113233436373CC603860036860EB71003B6100340
S11323444824435A2CFAC60331860136860DB71045
S113235403B6100348242F5A2CFAC60331860236D6
S1132364860BB71003B6100348241B5A2CFAC60371
S1132374318603368607B71003B610034824075A78
S11323842CFA0C3120083248481B16183A0D3833FD
S10523943239D8
S11323963C368612CEFFFF0926FD4A26F732383927
S11323A636860FB71007B6100284FEB7100232390C
S11323B6F71005B71004393C366F00084A26FA327E
S11323C6383936375FA603BD23B65CA602BD23B6ED
S11323D65CA601BD23B65CA600BD23B633323936EE
S11323E6373C183C30EE088645A700C603086F0044
S11323F6085A26FA30EE08BD23C8301AEE00BD236B
S11324063418A600814326F230A604EE02BD23BD8D
S1102416863030EE08A70318383833323909
S9030000FC
