S00700006D61696E53
S11320008E304FBD2220CE3200860FBD223786305F
S1132010CE3207A703BD224218CE3100BD21592577
S1132020037E215618A60081432612CE3200860F65
S1132030BD22378630CE3207A7037E214A18A60078
S11320408152262FB6320326037E2156CE32011842
S1132050CE320CBD229D24037E2139FE320CFF3288
S113206001CE320C18CE3207BD21BB8601B7320E29
S11320707E214A18A600810A2446B6320E27037E22
S11320802156CE320B3CCE32073CB6320326101812
S1132090A6002605FE32012719CE32007E20AC1898
S11320A0A6002605FE32052709CE3204BD23A77EED
S11320B020BBCE32078630A7036F0038387E214A12
S11320C018A600812D263BFE32012723B6320E27A7
S11320D0037E2102B6320327337C3204FC32052707
S11320E0037E2156862DB732077C320B7E214AB6F9
S11320F03200260E7C32007C320B862DB732077EEE
S1132100214A18A600274FB6320E27137F3204CE79
S113211032056F006F017F320B7F320E7E2124B6B1
S113212032032626CE32073C18A600CE320B18CE38
S11321303203BD2413387E214ACE32073C18CE31F7
S113214000CE3200C60FBD225F38CE3207BD220654
S10C2150BD2242BD38007E2018B6
S1133100000102030405060708092B2D432F2A5248
S113215936373CC603860036860EB71003B610031D
S11321694824435A2CFAC60331860136860DB71022
S113217903B6100348242F5A2CFAC60331860236B3
S1132189860BB71003B6100348241B5A2CFAC6034E
S1132199318603368607B71003B610034824075A55
S11321A92CFA0C3120083248481B16183A0D3833DA
S10521B93239B5
S11321BB36373C183CEC002733482412C62D18E75D
S11321CB00EC004353C30001CE00033C2006EC009B
S11321DBCE00043CCE000A028C0000CB3018E7037F
S11321EB18098F38093C26EC387E220018ED00CCF8
S10E21FB003018ED0218383832333978
S113220636373CC604A600812D27074D81302606A5
S10D22166F00085A26EF38333239FE
S113222036860FB71007B6100284FEB71002323993
S1132230F71005B71004393C366F00084A26FA3205
S1132240383936375FA603BD22305CA602BD223082
S11322505CA601BD22305CA600BD22303332393683
S1132260373C183C30EE088645A700C603086F00CB
S1132270085A26FA30EE08BD2242301AEE00BD217B
S11322805918A600814326F230A604EE02BD223777
S1102290863030EE08A70318383833323991
S113229D36373C183C862AA102274C4CA102273024
S11322AD4C4CA1022713EC00EE0426037E2313BD30
S11322BD237118ED000C7E2314EC00A3041A83FC87
S11322CD192D431A83270F2E3D18ED000C7E231470
S11322DDEC00E3041A83270F2E2C1A83FC192D26E8
S11322ED18ED000C7E23143CEC002710EE04270C93
S11322FDBD231A38251118ED007E2314186F00180C
S113230D6F01387E23140D183838323339183C7F59
S113231D320F183018EE044D2C0B7C320F4353C37F
S113232D000118ED008F4D2C087C320F4353C30070
S113233D018FCC000018E3001A83270F241E0926F1
S113234DF47D320F271A74320F74320F2512435352
S113235DC300011A83FC192F037E236D0D7E236E9A
S113236D0C183839183C18CE00004D2C07180843AA
S113237D53C300018F4D2C0718084353C300018F1D
S113238D028F188F5D270E5454250A188F4353C39B
S10D239D00017E23A4188F183839BC
S11323A736373C183C7F321230EE0AA600810425EA
S11323B7037E240D30EE02A6002609EC0118CE0098
S11323C70A7E23D97C321218CE000AEC014353C388
S11323D70001FD32104F5FF33210180926F9301A45
S11323E7EE008F18E6003A8F7D321227054353C358
S11323F7000130EE02ED0130EE0A6C00301AEE08EF
S10F2407EE0208BD21BB1838383332390E
S113241336373C183C18A7006F0030EE08A700C6F7
S111242303086F00085A26FA18383833323985
S113380036373C183C18CEFFFA3D3D3D3D3D3D3D2D
S10E38103D180926F41838383332390B
S9030000FC
